{
  "_format": "hh3-artifact-1",
  "contractName": "HuddleUpProtocol",
  "sourceName": "contracts/HuddleUpProtocol.sol",
  "abi": [
    {
      "inputs": [
        {
          "internalType": "address",
          "name": "_pyusdToken",
          "type": "address"
        }
      ],
      "stateMutability": "nonpayable",
      "type": "constructor"
    },
    {
      "inputs": [],
      "name": "AlreadyParticipant",
      "type": "error"
    },
    {
      "inputs": [],
      "name": "AlreadyReceivedAirdrop",
      "type": "error"
    },
    {
      "inputs": [],
      "name": "EventAlreadyExists",
      "type": "error"
    },
    {
      "inputs": [],
      "name": "EventDateInPast",
      "type": "error"
    },
    {
      "inputs": [],
      "name": "EventDateNotReached",
      "type": "error"
    },
    {
      "inputs": [],
      "name": "EventNotFound",
      "type": "error"
    },
    {
      "inputs": [],
      "name": "EventNotFunded",
      "type": "error"
    },
    {
      "inputs": [],
      "name": "InsufficientFunding",
      "type": "error"
    },
    {
      "inputs": [],
      "name": "InvalidEventId",
      "type": "error"
    },
    {
      "inputs": [],
      "name": "NotOrganizer",
      "type": "error"
    },
    {
      "inputs": [],
      "name": "NotParticipant",
      "type": "error"
    },
    {
      "inputs": [],
      "name": "NotSponsor",
      "type": "error"
    },
    {
      "inputs": [
        {
          "internalType": "address",
          "name": "owner",
          "type": "address"
        }
      ],
      "name": "OwnableInvalidOwner",
      "type": "error"
    },
    {
      "inputs": [
        {
          "internalType": "address",
          "name": "account",
          "type": "address"
        }
      ],
      "name": "OwnableUnauthorizedAccount",
      "type": "error"
    },
    {
      "inputs": [],
      "name": "ReentrancyGuardReentrantCall",
      "type": "error"
    },
    {
      "inputs": [],
      "name": "TransferFailed",
      "type": "error"
    },
    {
      "inputs": [],
      "name": "WithdrawalNotAllowed",
      "type": "error"
    },
    {
      "anonymous": false,
      "inputs": [
        {
          "indexed": true,
          "internalType": "bytes32",
          "name": "onchainEventId",
          "type": "bytes32"
        },
        {
          "indexed": true,
          "internalType": "address",
          "name": "organizer",
          "type": "address"
        },
        {
          "indexed": false,
          "internalType": "uint256",
          "name": "fundingRequired",
          "type": "uint256"
        },
        {
          "indexed": false,
          "internalType": "uint256",
          "name": "airdropAmount",
          "type": "uint256"
        },
        {
          "indexed": false,
          "internalType": "uint256",
          "name": "eventDate",
          "type": "uint256"
        }
      ],
      "name": "EventCreated",
      "type": "event"
    },
    {
      "anonymous": false,
      "inputs": [
        {
          "indexed": true,
          "internalType": "bytes32",
          "name": "eventId",
          "type": "bytes32"
        },
        {
          "indexed": true,
          "internalType": "address",
          "name": "sponsor",
          "type": "address"
        },
        {
          "indexed": false,
          "internalType": "uint256",
          "name": "amount",
          "type": "uint256"
        }
      ],
      "name": "EventFunded",
      "type": "event"
    },
    {
      "anonymous": false,
      "inputs": [
        {
          "indexed": true,
          "internalType": "bytes32",
          "name": "eventId",
          "type": "bytes32"
        },
        {
          "indexed": true,
          "internalType": "address",
          "name": "sponsor",
          "type": "address"
        },
        {
          "indexed": false,
          "internalType": "uint256",
          "name": "amount",
          "type": "uint256"
        }
      ],
      "name": "FundsWithdrawn",
      "type": "event"
    },
    {
      "anonymous": false,
      "inputs": [
        {
          "indexed": true,
          "internalType": "address",
          "name": "previousOwner",
          "type": "address"
        },
        {
          "indexed": true,
          "internalType": "address",
          "name": "newOwner",
          "type": "address"
        }
      ],
      "name": "OwnershipTransferred",
      "type": "event"
    },
    {
      "anonymous": false,
      "inputs": [
        {
          "indexed": true,
          "internalType": "bytes32",
          "name": "eventId",
          "type": "bytes32"
        },
        {
          "indexed": true,
          "internalType": "address",
          "name": "participant",
          "type": "address"
        }
      ],
      "name": "ParticipantJoined",
      "type": "event"
    },
    {
      "anonymous": false,
      "inputs": [
        {
          "indexed": true,
          "internalType": "bytes32",
          "name": "eventId",
          "type": "bytes32"
        },
        {
          "indexed": true,
          "internalType": "address",
          "name": "participant",
          "type": "address"
        }
      ],
      "name": "ParticipantLeft",
      "type": "event"
    },
    {
      "anonymous": false,
      "inputs": [
        {
          "indexed": true,
          "internalType": "bytes32",
          "name": "eventId",
          "type": "bytes32"
        },
        {
          "indexed": true,
          "internalType": "address",
          "name": "participant",
          "type": "address"
        },
        {
          "indexed": false,
          "internalType": "uint256",
          "name": "airdropAmount",
          "type": "uint256"
        }
      ],
      "name": "ParticipantVerified",
      "type": "event"
    },
    {
      "inputs": [
        {
          "internalType": "bytes32",
          "name": "",
          "type": "bytes32"
        },
        {
          "internalType": "uint256",
          "name": "",
          "type": "uint256"
        }
      ],
      "name": "eventParticipants",
      "outputs": [
        {
          "internalType": "address",
          "name": "",
          "type": "address"
        }
      ],
      "stateMutability": "view",
      "type": "function"
    },
    {
      "inputs": [
        {
          "internalType": "bytes32",
          "name": "",
          "type": "bytes32"
        }
      ],
      "name": "events",
      "outputs": [
        {
          "internalType": "address",
          "name": "organizer",
          "type": "address"
        },
        {
          "internalType": "address",
          "name": "sponsor",
          "type": "address"
        },
        {
          "internalType": "uint256",
          "name": "fundingRequired",
          "type": "uint256"
        },
        {
          "internalType": "uint256",
          "name": "airdropAmount",
          "type": "uint256"
        },
        {
          "internalType": "uint256",
          "name": "eventDate",
          "type": "uint256"
        },
        {
          "internalType": "uint256",
          "name": "totalFunding",
          "type": "uint256"
        },
        {
          "internalType": "bool",
          "name": "isFunded",
          "type": "bool"
        },
        {
          "internalType": "bool",
          "name": "isCompleted",
          "type": "bool"
        },
        {
          "internalType": "bool",
          "name": "exists",
          "type": "bool"
        }
      ],
      "stateMutability": "view",
      "type": "function"
    },
    {
      "inputs": [
        {
          "internalType": "bytes32",
          "name": "_onchainEventId",
          "type": "bytes32"
        },
        {
          "internalType": "address",
          "name": "_organizer",
          "type": "address"
        },
        {
          "internalType": "uint256",
          "name": "_fundingRequired",
          "type": "uint256"
        },
        {
          "internalType": "uint256",
          "name": "_airdropAmount",
          "type": "uint256"
        },
        {
          "internalType": "uint256",
          "name": "_eventDate",
          "type": "uint256"
        },
        {
          "internalType": "uint256",
          "name": "_fundingAmount",
          "type": "uint256"
        }
      ],
      "name": "fundEvent",
      "outputs": [],
      "stateMutability": "nonpayable",
      "type": "function"
    },
    {
      "inputs": [
        {
          "internalType": "bytes32",
          "name": "_eventId",
          "type": "bytes32"
        }
      ],
      "name": "getEvent",
      "outputs": [
        {
          "components": [
            {
              "internalType": "address",
              "name": "organizer",
              "type": "address"
            },
            {
              "internalType": "address",
              "name": "sponsor",
              "type": "address"
            },
            {
              "internalType": "uint256",
              "name": "fundingRequired",
              "type": "uint256"
            },
            {
              "internalType": "uint256",
              "name": "airdropAmount",
              "type": "uint256"
            },
            {
              "internalType": "uint256",
              "name": "eventDate",
              "type": "uint256"
            },
            {
              "internalType": "uint256",
              "name": "totalFunding",
              "type": "uint256"
            },
            {
              "internalType": "bool",
              "name": "isFunded",
              "type": "bool"
            },
            {
              "internalType": "bool",
              "name": "isCompleted",
              "type": "bool"
            },
            {
              "internalType": "bool",
              "name": "exists",
              "type": "bool"
            }
          ],
          "internalType": "struct HuddleUpProtocol.Event",
          "name": "",
          "type": "tuple"
        }
      ],
      "stateMutability": "view",
      "type": "function"
    },
    {
      "inputs": [
        {
          "internalType": "bytes32",
          "name": "_eventId",
          "type": "bytes32"
        }
      ],
      "name": "getEventParticipants",
      "outputs": [
        {
          "internalType": "address[]",
          "name": "",
          "type": "address[]"
        }
      ],
      "stateMutability": "view",
      "type": "function"
    },
    {
      "inputs": [
        {
          "internalType": "bytes32",
          "name": "_eventId",
          "type": "bytes32"
        },
        {
          "internalType": "address",
          "name": "_participant",
          "type": "address"
        }
      ],
      "name": "getParticipant",
      "outputs": [
        {
          "components": [
            {
              "internalType": "bool",
              "name": "isActive",
              "type": "bool"
            },
            {
              "internalType": "bool",
              "name": "hasReceivedAirdrop",
              "type": "bool"
            },
            {
              "internalType": "uint256",
              "name": "joinedAt",
              "type": "uint256"
            },
            {
              "internalType": "uint256",
              "name": "leftAt",
              "type": "uint256"
            }
          ],
          "internalType": "struct HuddleUpProtocol.Participant",
          "name": "",
          "type": "tuple"
        }
      ],
      "stateMutability": "view",
      "type": "function"
    },
    {
      "inputs": [
        {
          "internalType": "bytes32",
          "name": "_eventId",
          "type": "bytes32"
        }
      ],
      "name": "joinEvent",
      "outputs": [],
      "stateMutability": "nonpayable",
      "type": "function"
    },
    {
      "inputs": [
        {
          "internalType": "bytes32",
          "name": "_eventId",
          "type": "bytes32"
        }
      ],
      "name": "leaveEvent",
      "outputs": [],
      "stateMutability": "nonpayable",
      "type": "function"
    },
    {
      "inputs": [],
      "name": "owner",
      "outputs": [
        {
          "internalType": "address",
          "name": "",
          "type": "address"
        }
      ],
      "stateMutability": "view",
      "type": "function"
    },
    {
      "inputs": [
        {
          "internalType": "bytes32",
          "name": "",
          "type": "bytes32"
        },
        {
          "internalType": "address",
          "name": "",
          "type": "address"
        }
      ],
      "name": "participants",
      "outputs": [
        {
          "internalType": "bool",
          "name": "isActive",
          "type": "bool"
        },
        {
          "internalType": "bool",
          "name": "hasReceivedAirdrop",
          "type": "bool"
        },
        {
          "internalType": "uint256",
          "name": "joinedAt",
          "type": "uint256"
        },
        {
          "internalType": "uint256",
          "name": "leftAt",
          "type": "uint256"
        }
      ],
      "stateMutability": "view",
      "type": "function"
    },
    {
      "inputs": [],
      "name": "pyusdToken",
      "outputs": [
        {
          "internalType": "contract IERC20",
          "name": "",
          "type": "address"
        }
      ],
      "stateMutability": "view",
      "type": "function"
    },
    {
      "inputs": [],
      "name": "renounceOwnership",
      "outputs": [],
      "stateMutability": "nonpayable",
      "type": "function"
    },
    {
      "inputs": [
        {
          "internalType": "address",
          "name": "newOwner",
          "type": "address"
        }
      ],
      "name": "transferOwnership",
      "outputs": [],
      "stateMutability": "nonpayable",
      "type": "function"
    },
    {
      "inputs": [
        {
          "internalType": "bytes32",
          "name": "_eventId",
          "type": "bytes32"
        },
        {
          "internalType": "address",
          "name": "_participant",
          "type": "address"
        }
      ],
      "name": "verifyParticipant",
      "outputs": [],
      "stateMutability": "nonpayable",
      "type": "function"
    },
    {
      "inputs": [
        {
          "internalType": "bytes32",
          "name": "_eventId",
          "type": "bytes32"
        }
      ],
      "name": "withdrawRemainingFunds",
      "outputs": [],
      "stateMutability": "nonpayable",
      "type": "function"
    }
  ],
  "bytecode": "0x60a060405234801561000f575f5ffd5b5060405161184b38038061184b83398101604081905261002e9161011a565b60015f55338061005857604051631e4fbdf760e01b81525f60048201526024015b60405180910390fd5b610061816100c9565b506001600160a01b0381166100b85760405162461bcd60e51b815260206004820152601b60248201527f496e76616c696420505955534420746f6b656e20616464726573730000000000604482015260640161004f565b6001600160a01b0316608052610147565b600180546001600160a01b038381166001600160a01b0319831681179093556040519116919082907f8be0079c531659141344cd1fd0a4f28419497f9722a3daafe3b4186f6b6457e0905f90a35050565b5f6020828403121561012a575f5ffd5b81516001600160a01b0381168114610140575f5ffd5b9392505050565b6080516116c26101895f395f818161020b015281816105440152818161060f015281816108d10152818161095d01528181610a0401526110eb01526116c25ff3fe608060405234801561000f575f5ffd5b50600436106100f0575f3560e01c80638c172fa211610093578063a79a2c7811610063578063a79a2c7814610240578063bfdc4a61146102a7578063c8f2860714610369578063f2fde38b1461037c575f5ffd5b80638c172fa2146101d55780638da5cb5b146101f55780639176300914610206578063a6b0098d1461022d575f5ffd5b80633e290c38116100ce5780633e290c381461015d5780636785ce0914610170578063715018a6146101ba578063750a940f146101c2575f5ffd5b80632dfdc136146100f457806333f253c91461011d5780633a2d7f4214610132575b5f5ffd5b610107610102366004611449565b61038f565b6040516101149190611460565b60405180910390f35b61013061012b3660046114c6565b610430565b005b6101456101403660046114f0565b6106f1565b6040516001600160a01b039091168152602001610114565b61013061016b366004611449565b610725565b61018361017e3660046114c6565b610ae6565b6040516101149190815115158152602080830151151590820152604080830151908201526060918201519181019190915260800190565b610130610ba4565b6101306101d0366004611449565b610bb7565b6101e86101e3366004611449565b610ce3565b6040516101149190611510565b6001546001600160a01b0316610145565b6101457f000000000000000000000000000000000000000000000000000000000000000081565b61013061023b366004611449565b610df2565b61028561024e3660046114c6565b600360209081525f928352604080842090915290825290208054600182015460029092015460ff8083169361010090930416919084565b6040805194151585529215156020850152918301526060820152608001610114565b6103146102b5366004611449565b600260208190525f918252604090912080546001820154928201546003830154600484015460058501546006909501546001600160a01b03948516969094169492939192909160ff808216916101008104821691620100009091041689565b604080516001600160a01b039a8b1681529990981660208a0152968801959095526060870193909352608086019190915260a0850152151560c0840152151560e0830152151561010082015261012001610114565b61013061037736600461159e565b610ea3565b61013061038a3660046115e8565b611369565b5f8181526002602052604090206006015460609062010000900460ff166103c957604051635add554360e01b815260040160405180910390fd5b5f828152600460209081526040918290208054835181840281018401909452808452909183018282801561042457602002820191905f5260205f20905b81546001600160a01b03168152600190910190602001808311610406575b50505050509050919050565b6104386113a3565b5f828152600260205260409020600681015462010000900460ff1661047057604051635add554360e01b815260040160405180910390fd5b80546001600160a01b0316331461049a576040516323d03a7160e21b815260040160405180910390fd5b600681015460ff166104bf576040516349f55e0b60e01b815260040160405180910390fd5b5f8381526003602090815260408083206001600160a01b03861684529091529020805460ff166105025760405163721c7c6760e11b815260040160405180910390fd5b8054610100900460ff161561052a57604051638dc3b06560e01b815260040160405180910390fd5b60038201546040516370a0823160e01b81523060048201527f00000000000000000000000000000000000000000000000000000000000000006001600160a01b0316906370a0823190602401602060405180830381865afa158015610591573d5f5f3e3d5ffd5b505050506040513d601f19601f820116820180604052508101906105b59190611608565b10156105d4576040516357e000b160e01b815260040160405180910390fd5b805461ff001916610100178155600382015460405163a9059cbb60e01b81526001600160a01b03858116600483015260248201929092525f917f0000000000000000000000000000000000000000000000000000000000000000169063a9059cbb906044016020604051808303815f875af1158015610655573d5f5f3e3d5ffd5b505050506040513d601f19601f82011682018060405250810190610679919061161f565b905080610699576040516312171d8360e31b815260040160405180910390fd5b836001600160a01b0316857f7d96ae4403542542ddd25dc2436150889902b8e7d3aade14b2db7efc10a85a1b85600301546040516106d991815260200190565b60405180910390a35050506106ed60015f55565b5050565b6004602052815f5260405f20818154811061070a575f80fd5b5f918252602090912001546001600160a01b03169150829050565b61072d6113a3565b5f818152600260205260409020600681015462010000900460ff1661076557604051635add554360e01b815260040160405180910390fd5b60018101546001600160a01b031633146107925760405163df4795c760e01b815260040160405180910390fd5b60048101546107a49062015180611652565b4210156107c45760405163209a769d60e11b815260040160405180910390fd5b5f8281526004602090815260408083208054825181850281018501909352808352849383018282801561081e57602002820191905f5260205f20905b81546001600160a01b03168152600190910190602001808311610800575b509394505f93505050505b81518110156108a05760035f8681526020019081526020015f205f83838151811061085657610856611665565b6020908102919091018101516001600160a01b031682528101919091526040015f2054610100900460ff16156108985760038401546108959084611652565b92505b600101610829565b505f8284600501546108b29190611679565b90508015610ad6576040516370a0823160e01b815230600482015281907f00000000000000000000000000000000000000000000000000000000000000006001600160a01b0316906370a0823190602401602060405180830381865afa15801561091e573d5f5f3e3d5ffd5b505050506040513d601f19601f820116820180604052508101906109429190611608565b10156109d1576040516370a0823160e01b81523060048201527f00000000000000000000000000000000000000000000000000000000000000006001600160a01b0316906370a0823190602401602060405180830381865afa1580156109aa573d5f5f3e3d5ffd5b505050506040513d601f19601f820116820180604052508101906109ce9190611608565b90505b8015610ad657600184015460405163a9059cbb60e01b81526001600160a01b039182166004820152602481018390525f917f0000000000000000000000000000000000000000000000000000000000000000169063a9059cbb906044016020604051808303815f875af1158015610a4a573d5f5f3e3d5ffd5b505050506040513d601f19601f82011682018060405250810190610a6e919061161f565b905080610a8e576040516312171d8360e31b815260040160405180910390fd5b60018501546040518381526001600160a01b039091169087907f13e7ed68a0fe9e4bcafdde5f49381514a9ee7e34ff7d926eadab64c1e0e77f169060200160405180910390a3505b50505050610ae360015f55565b50565b604080516080810182525f8082526020820181905291810182905260608101919091525f8381526002602052604090206006015462010000900460ff16610b4057604051635add554360e01b815260040160405180910390fd5b505f8281526003602090815260408083206001600160a01b03851684528252918290208251608081018452815460ff808216151583526101009091041615159281019290925260018101549282019290925260029091015460608201525b92915050565b610bac6113cb565b610bb55f6113f8565b565b5f818152600260205260409020600681015462010000900460ff16610bef57604051635add554360e01b815260040160405180910390fd5b600681015460ff16610c14576040516349f55e0b60e01b815260040160405180910390fd5b5f8281526003602090815260408083203384529091529020805460ff1615610c4f576040516389644bf160e01b815260040160405180910390fd5b600281015415610c6f57805460ff191660011781555f6002820155610cb2565b80544260018381019190915561ffff19909116811782555f848152600460209081526040822080549384018155825290200180546001600160a01b031916331790555b604051339084907fb329d2a416211a7d384f685239fb129bf161b12abd4c0563c3a48d5d28b4649d905f90a3505050565b60408051610120810182525f80825260208201819052918101829052606081018290526080810182905260a0810182905260c0810182905260e081018290526101008101919091525f8281526002602052604090206006015462010000900460ff16610d6257604051635add554360e01b815260040160405180910390fd5b505f9081526002602081815260409283902083516101208101855281546001600160a01b0390811682526001830154169281019290925291820154928101929092526003810154606083015260048101546080830152600581015460a08301526006015460ff808216151560c08401526101008083048216151560e0850152620100009092041615159082015290565b5f818152600260205260409020600681015462010000900460ff16610e2a57604051635add554360e01b815260040160405180910390fd5b5f8281526003602090815260408083203384529091529020805460ff16610e645760405163721c7c6760e11b815260040160405180910390fd5b805460ff19168155426002820155604051339084907f8616f4357fcda03d0a4c8daeb32c226d944aaa90408b95adeceaa2bb100e0c95905f90a3505050565b610eab6113a3565b5f869003610ecc57604051630c93477d60e41b815260040160405180910390fd5b5f8681526002602052604090206006015462010000900460ff1615610f045760405163232cdbe760e11b815260040160405180910390fd5b6001600160a01b038516610f5f5760405162461bcd60e51b815260206004820152601960248201527f496e76616c6964206f7267616e697a657220616464726573730000000000000060448201526064015b60405180910390fd5b5f8411610fbe5760405162461bcd60e51b815260206004820152602760248201527f46756e64696e67207265717569726564206d75737420626520677265617465726044820152660207468616e20360cc1b6064820152608401610f56565b5f831161101b5760405162461bcd60e51b815260206004820152602560248201527f41697264726f7020616d6f756e74206d75737420626520677265617465722074604482015264068616e20360dc1b6064820152608401610f56565b42821161106a5760405162461bcd60e51b815260206004820181905260248201527f4576656e742064617465206d75737420626520696e20746865206675747572656044820152606401610f56565b5f81116110c75760405162461bcd60e51b815260206004820152602560248201527f46756e64696e6720616d6f756e74206d75737420626520677265617465722074604482015264068616e20360dc1b6064820152608401610f56565b6040516323b872dd60e01b8152336004820152306024820152604481018290525f907f00000000000000000000000000000000000000000000000000000000000000006001600160a01b0316906323b872dd906064016020604051808303815f875af1158015611139573d5f5f3e3d5ffd5b505050506040513d601f19601f8201168201806040525081019061115d919061161f565b90508061117d576040516312171d8360e31b815260040160405180910390fd5b604051806101200160405280876001600160a01b03168152602001336001600160a01b031681526020018681526020018581526020018481526020018381526020016001151581526020015f151581526020016001151581525060025f8981526020019081526020015f205f820151815f015f6101000a8154816001600160a01b0302191690836001600160a01b031602179055506020820151816001015f6101000a8154816001600160a01b0302191690836001600160a01b0316021790555060408201518160020155606082015181600301556080820151816004015560a0820151816005015560c0820151816006015f6101000a81548160ff02191690831515021790555060e08201518160060160016101000a81548160ff0219169083151502179055506101008201518160060160026101000a81548160ff021916908315150217905550905050856001600160a01b0316877f59ebca28958c60294d9be99f0f6d931b26704dba5337c2aacd708027849dcbaf878787604051611318939291909283526020830191909152604082015260600190565b60405180910390a3604051828152339088907fac8ef09503e867744a67572c20adf51680b2719369c9750e9861e9324a0871499060200160405180910390a35061136160015f55565b505050505050565b6113716113cb565b6001600160a01b03811661139a57604051631e4fbdf760e01b81525f6004820152602401610f56565b610ae3816113f8565b60025f54036113c557604051633ee5aeb560e01b815260040160405180910390fd5b60025f55565b6001546001600160a01b03163314610bb55760405163118cdaa760e01b8152336004820152602401610f56565b600180546001600160a01b038381166001600160a01b0319831681179093556040519116919082907f8be0079c531659141344cd1fd0a4f28419497f9722a3daafe3b4186f6b6457e0905f90a35050565b5f60208284031215611459575f5ffd5b5035919050565b602080825282518282018190525f918401906040840190835b818110156114a05783516001600160a01b0316835260209384019390920191600101611479565b509095945050505050565b80356001600160a01b03811681146114c1575f5ffd5b919050565b5f5f604083850312156114d7575f5ffd5b823591506114e7602084016114ab565b90509250929050565b5f5f60408385031215611501575f5ffd5b50508035926020909101359150565b81516001600160a01b0390811682526020808401519091169082015260408083015190820152606080830151908201526080808301519082015260a0828101519082015260c08083015161012083019161156d9084018215159052565b5060e083015161158160e084018215159052565b5061010083015161159761010084018215159052565b5092915050565b5f5f5f5f5f5f60c087890312156115b3575f5ffd5b863595506115c3602088016114ab565b95989597505050506040840135936060810135936080820135935060a0909101359150565b5f602082840312156115f8575f5ffd5b611601826114ab565b9392505050565b5f60208284031215611618575f5ffd5b5051919050565b5f6020828403121561162f575f5ffd5b81518015158114611601575f5ffd5b634e487b7160e01b5f52601160045260245ffd5b80820180821115610b9e57610b9e61163e565b634e487b7160e01b5f52603260045260245ffd5b81810381811115610b9e57610b9e61163e56fea26469706673582212209fe573669fcdd69579637fa2035398f67187b558cb8d0d31d8db7efe40b2a58064736f6c634300081c0033",
  "linkReferences": {},
  "deployedLinkReferences": {},
  "immutableReferences": {
    "337": [
      {
        "length": 32,
        "start": 523
      },
      {
        "length": 32,
        "start": 1348
      },
      {
        "length": 32,
        "start": 1551
      },
      {
        "length": 32,
        "start": 2257
      },
      {
        "length": 32,
        "start": 2397
      },
      {
        "length": 32,
        "start": 2564
      },
      {
        "length": 32,
        "start": 4331
      }
    ]
  },
  "inputSourceName": "project/contracts/HuddleUpProtocol.sol",
  "buildInfoId": "solc-0_8_28-3660eed5172ef944e872382055221a3f82fe54f0"
}