{
  "_format": "hh3-artifact-1",
  "contractName": "HuddleUpProtocol",
  "sourceName": "contracts/HuddleUpProtocol.sol",
  "abi": [
    {
      "inputs": [
        {
          "internalType": "address",
          "name": "_pyusdToken",
          "type": "address"
        }
      ],
      "stateMutability": "nonpayable",
      "type": "constructor"
    },
    {
      "inputs": [],
      "name": "AlreadyParticipant",
      "type": "error"
    },
    {
      "inputs": [],
      "name": "AlreadyReceivedAirdrop",
      "type": "error"
    },
    {
      "inputs": [],
      "name": "EventAlreadyFunded",
      "type": "error"
    },
    {
      "inputs": [],
      "name": "EventDateInPast",
      "type": "error"
    },
    {
      "inputs": [],
      "name": "EventDateNotReached",
      "type": "error"
    },
    {
      "inputs": [],
      "name": "EventNotFound",
      "type": "error"
    },
    {
      "inputs": [],
      "name": "EventNotFunded",
      "type": "error"
    },
    {
      "inputs": [],
      "name": "InsufficientFunding",
      "type": "error"
    },
    {
      "inputs": [],
      "name": "NotOrganizer",
      "type": "error"
    },
    {
      "inputs": [],
      "name": "NotParticipant",
      "type": "error"
    },
    {
      "inputs": [],
      "name": "NotSponsor",
      "type": "error"
    },
    {
      "inputs": [
        {
          "internalType": "address",
          "name": "owner",
          "type": "address"
        }
      ],
      "name": "OwnableInvalidOwner",
      "type": "error"
    },
    {
      "inputs": [
        {
          "internalType": "address",
          "name": "account",
          "type": "address"
        }
      ],
      "name": "OwnableUnauthorizedAccount",
      "type": "error"
    },
    {
      "inputs": [],
      "name": "ReentrancyGuardReentrantCall",
      "type": "error"
    },
    {
      "inputs": [],
      "name": "TransferFailed",
      "type": "error"
    },
    {
      "inputs": [],
      "name": "WithdrawalNotAllowed",
      "type": "error"
    },
    {
      "anonymous": false,
      "inputs": [
        {
          "indexed": true,
          "internalType": "uint256",
          "name": "eventId",
          "type": "uint256"
        },
        {
          "indexed": false,
          "internalType": "string",
          "name": "dbEventId",
          "type": "string"
        },
        {
          "indexed": true,
          "internalType": "address",
          "name": "organizer",
          "type": "address"
        },
        {
          "indexed": false,
          "internalType": "uint256",
          "name": "fundingRequired",
          "type": "uint256"
        },
        {
          "indexed": false,
          "internalType": "uint256",
          "name": "airdropAmount",
          "type": "uint256"
        },
        {
          "indexed": false,
          "internalType": "uint256",
          "name": "eventDate",
          "type": "uint256"
        }
      ],
      "name": "EventCreated",
      "type": "event"
    },
    {
      "anonymous": false,
      "inputs": [
        {
          "indexed": true,
          "internalType": "uint256",
          "name": "eventId",
          "type": "uint256"
        },
        {
          "indexed": true,
          "internalType": "address",
          "name": "sponsor",
          "type": "address"
        },
        {
          "indexed": false,
          "internalType": "uint256",
          "name": "amount",
          "type": "uint256"
        }
      ],
      "name": "EventFunded",
      "type": "event"
    },
    {
      "anonymous": false,
      "inputs": [
        {
          "indexed": true,
          "internalType": "uint256",
          "name": "eventId",
          "type": "uint256"
        },
        {
          "indexed": true,
          "internalType": "address",
          "name": "sponsor",
          "type": "address"
        },
        {
          "indexed": false,
          "internalType": "uint256",
          "name": "amount",
          "type": "uint256"
        }
      ],
      "name": "FundsWithdrawn",
      "type": "event"
    },
    {
      "anonymous": false,
      "inputs": [
        {
          "indexed": true,
          "internalType": "address",
          "name": "previousOwner",
          "type": "address"
        },
        {
          "indexed": true,
          "internalType": "address",
          "name": "newOwner",
          "type": "address"
        }
      ],
      "name": "OwnershipTransferred",
      "type": "event"
    },
    {
      "anonymous": false,
      "inputs": [
        {
          "indexed": true,
          "internalType": "uint256",
          "name": "eventId",
          "type": "uint256"
        },
        {
          "indexed": true,
          "internalType": "address",
          "name": "participant",
          "type": "address"
        }
      ],
      "name": "ParticipantJoined",
      "type": "event"
    },
    {
      "anonymous": false,
      "inputs": [
        {
          "indexed": true,
          "internalType": "uint256",
          "name": "eventId",
          "type": "uint256"
        },
        {
          "indexed": true,
          "internalType": "address",
          "name": "participant",
          "type": "address"
        }
      ],
      "name": "ParticipantLeft",
      "type": "event"
    },
    {
      "anonymous": false,
      "inputs": [
        {
          "indexed": true,
          "internalType": "uint256",
          "name": "eventId",
          "type": "uint256"
        },
        {
          "indexed": true,
          "internalType": "address",
          "name": "participant",
          "type": "address"
        },
        {
          "indexed": false,
          "internalType": "uint256",
          "name": "airdropAmount",
          "type": "uint256"
        }
      ],
      "name": "ParticipantVerified",
      "type": "event"
    },
    {
      "inputs": [
        {
          "internalType": "uint256",
          "name": "",
          "type": "uint256"
        },
        {
          "internalType": "uint256",
          "name": "",
          "type": "uint256"
        }
      ],
      "name": "eventParticipants",
      "outputs": [
        {
          "internalType": "address",
          "name": "",
          "type": "address"
        }
      ],
      "stateMutability": "view",
      "type": "function"
    },
    {
      "inputs": [
        {
          "internalType": "uint256",
          "name": "",
          "type": "uint256"
        }
      ],
      "name": "events",
      "outputs": [
        {
          "internalType": "string",
          "name": "dbEventId",
          "type": "string"
        },
        {
          "internalType": "address",
          "name": "organizer",
          "type": "address"
        },
        {
          "internalType": "address",
          "name": "sponsor",
          "type": "address"
        },
        {
          "internalType": "uint256",
          "name": "fundingRequired",
          "type": "uint256"
        },
        {
          "internalType": "uint256",
          "name": "airdropAmount",
          "type": "uint256"
        },
        {
          "internalType": "uint256",
          "name": "eventDate",
          "type": "uint256"
        },
        {
          "internalType": "uint256",
          "name": "totalFunding",
          "type": "uint256"
        },
        {
          "internalType": "bool",
          "name": "isFunded",
          "type": "bool"
        },
        {
          "internalType": "bool",
          "name": "isCompleted",
          "type": "bool"
        },
        {
          "internalType": "bool",
          "name": "exists",
          "type": "bool"
        }
      ],
      "stateMutability": "view",
      "type": "function"
    },
    {
      "inputs": [
        {
          "internalType": "address",
          "name": "_organizer",
          "type": "address"
        },
        {
          "internalType": "uint256",
          "name": "_fundingRequired",
          "type": "uint256"
        },
        {
          "internalType": "uint256",
          "name": "_airdropAmount",
          "type": "uint256"
        },
        {
          "internalType": "uint256",
          "name": "_eventDate",
          "type": "uint256"
        },
        {
          "internalType": "uint256",
          "name": "_fundingAmount",
          "type": "uint256"
        }
      ],
      "name": "fundEvent",
      "outputs": [
        {
          "internalType": "uint256",
          "name": "",
          "type": "uint256"
        }
      ],
      "stateMutability": "nonpayable",
      "type": "function"
    },
    {
      "inputs": [
        {
          "internalType": "uint256",
          "name": "_eventId",
          "type": "uint256"
        }
      ],
      "name": "getEvent",
      "outputs": [
        {
          "components": [
            {
              "internalType": "string",
              "name": "dbEventId",
              "type": "string"
            },
            {
              "internalType": "address",
              "name": "organizer",
              "type": "address"
            },
            {
              "internalType": "address",
              "name": "sponsor",
              "type": "address"
            },
            {
              "internalType": "uint256",
              "name": "fundingRequired",
              "type": "uint256"
            },
            {
              "internalType": "uint256",
              "name": "airdropAmount",
              "type": "uint256"
            },
            {
              "internalType": "uint256",
              "name": "eventDate",
              "type": "uint256"
            },
            {
              "internalType": "uint256",
              "name": "totalFunding",
              "type": "uint256"
            },
            {
              "internalType": "bool",
              "name": "isFunded",
              "type": "bool"
            },
            {
              "internalType": "bool",
              "name": "isCompleted",
              "type": "bool"
            },
            {
              "internalType": "bool",
              "name": "exists",
              "type": "bool"
            }
          ],
          "internalType": "struct HuddleUpProtocol.Event",
          "name": "",
          "type": "tuple"
        }
      ],
      "stateMutability": "view",
      "type": "function"
    },
    {
      "inputs": [
        {
          "internalType": "uint256",
          "name": "_eventId",
          "type": "uint256"
        }
      ],
      "name": "getEventParticipants",
      "outputs": [
        {
          "internalType": "address[]",
          "name": "",
          "type": "address[]"
        }
      ],
      "stateMutability": "view",
      "type": "function"
    },
    {
      "inputs": [
        {
          "internalType": "uint256",
          "name": "_eventId",
          "type": "uint256"
        },
        {
          "internalType": "address",
          "name": "_participant",
          "type": "address"
        }
      ],
      "name": "getParticipant",
      "outputs": [
        {
          "components": [
            {
              "internalType": "bool",
              "name": "isActive",
              "type": "bool"
            },
            {
              "internalType": "bool",
              "name": "hasReceivedAirdrop",
              "type": "bool"
            },
            {
              "internalType": "uint256",
              "name": "joinedAt",
              "type": "uint256"
            },
            {
              "internalType": "uint256",
              "name": "leftAt",
              "type": "uint256"
            }
          ],
          "internalType": "struct HuddleUpProtocol.Participant",
          "name": "",
          "type": "tuple"
        }
      ],
      "stateMutability": "view",
      "type": "function"
    },
    {
      "inputs": [
        {
          "internalType": "uint256",
          "name": "_eventId",
          "type": "uint256"
        }
      ],
      "name": "joinEvent",
      "outputs": [],
      "stateMutability": "nonpayable",
      "type": "function"
    },
    {
      "inputs": [
        {
          "internalType": "uint256",
          "name": "_eventId",
          "type": "uint256"
        }
      ],
      "name": "leaveEvent",
      "outputs": [],
      "stateMutability": "nonpayable",
      "type": "function"
    },
    {
      "inputs": [],
      "name": "nextEventId",
      "outputs": [
        {
          "internalType": "uint256",
          "name": "",
          "type": "uint256"
        }
      ],
      "stateMutability": "view",
      "type": "function"
    },
    {
      "inputs": [],
      "name": "owner",
      "outputs": [
        {
          "internalType": "address",
          "name": "",
          "type": "address"
        }
      ],
      "stateMutability": "view",
      "type": "function"
    },
    {
      "inputs": [
        {
          "internalType": "uint256",
          "name": "",
          "type": "uint256"
        },
        {
          "internalType": "address",
          "name": "",
          "type": "address"
        }
      ],
      "name": "participants",
      "outputs": [
        {
          "internalType": "bool",
          "name": "isActive",
          "type": "bool"
        },
        {
          "internalType": "bool",
          "name": "hasReceivedAirdrop",
          "type": "bool"
        },
        {
          "internalType": "uint256",
          "name": "joinedAt",
          "type": "uint256"
        },
        {
          "internalType": "uint256",
          "name": "leftAt",
          "type": "uint256"
        }
      ],
      "stateMutability": "view",
      "type": "function"
    },
    {
      "inputs": [],
      "name": "pyusdToken",
      "outputs": [
        {
          "internalType": "contract IERC20",
          "name": "",
          "type": "address"
        }
      ],
      "stateMutability": "view",
      "type": "function"
    },
    {
      "inputs": [],
      "name": "renounceOwnership",
      "outputs": [],
      "stateMutability": "nonpayable",
      "type": "function"
    },
    {
      "inputs": [
        {
          "internalType": "address",
          "name": "newOwner",
          "type": "address"
        }
      ],
      "name": "transferOwnership",
      "outputs": [],
      "stateMutability": "nonpayable",
      "type": "function"
    },
    {
      "inputs": [
        {
          "internalType": "uint256",
          "name": "_eventId",
          "type": "uint256"
        },
        {
          "internalType": "address",
          "name": "_participant",
          "type": "address"
        }
      ],
      "name": "verifyParticipant",
      "outputs": [],
      "stateMutability": "nonpayable",
      "type": "function"
    },
    {
      "inputs": [
        {
          "internalType": "uint256",
          "name": "_eventId",
          "type": "uint256"
        }
      ],
      "name": "withdrawRemainingFunds",
      "outputs": [],
      "stateMutability": "nonpayable",
      "type": "function"
    }
  ],
  "bytecode": "0x60a06040526001600255348015610014575f5ffd5b50604051611a07380380611a078339810160408190526100339161011f565b60015f55338061005d57604051631e4fbdf760e01b81525f60048201526024015b60405180910390fd5b610066816100ce565b506001600160a01b0381166100bd5760405162461bcd60e51b815260206004820152601b60248201527f496e76616c696420505955534420746f6b656e206164647265737300000000006044820152606401610054565b6001600160a01b031660805261014c565b600180546001600160a01b038381166001600160a01b0319831681179093556040519116919082907f8be0079c531659141344cd1fd0a4f28419497f9722a3daafe3b4186f6b6457e0905f90a35050565b5f6020828403121561012f575f5ffd5b81516001600160a01b0381168114610145575f5ffd5b9392505050565b6080516118876101805f395f818161029001528181610437015281816104eb01528181610ab0015261117e01526118875ff3fe608060405234801561000f575f5ffd5b50600436106100fb575f3560e01c8063715018a611610093578063b50e018211610063578063b50e0182146102bb578063bd798a3f146102db578063e3129170146102ee578063f2fde38b14610301575f5ffd5b8063715018a6146102725780638da5cb5b1461027a578063917630091461028b5780639f9d903a146102b2575f5ffd5b806338d361e2116100ce57806338d361e2146101f357806343d5b343146102065780636d1884e0146102275780636fea5b9414610247575f5ffd5b806302e060c6146100ff57806304f126691461016b5780630b7914301461018057806335f3ad7a146101a9575b5f5ffd5b61014461010d36600461140c565b600460209081525f928352604080842090915290825290208054600182015460029092015460ff8083169361010090930416919084565b60408051941515855292151560208501529183015260608201526080015b60405180910390f35b61017e61017936600461140c565b610314565b005b61019361018e366004611436565b6105eb565b6040516101629a9998979695949392919061147b565b6101bc6101b736600461140c565b6106d6565b6040516101629190815115158152602080830151151590820152604080830151908201526060918201519181019190915260800190565b61017e610201366004611436565b610794565b6102196102143660046114e6565b6108c0565b604051908152602001610162565b61023a610235366004611436565b610d27565b6040516101629190611524565b61025a6102553660046115d7565b610ed4565b6040516001600160a01b039091168152602001610162565b61017e610f08565b6001546001600160a01b031661025a565b61025a7f000000000000000000000000000000000000000000000000000000000000000081565b61021960025481565b6102ce6102c9366004611436565b610f1b565b60405161016291906115f7565b61017e6102e9366004611436565b610fbc565b61017e6102fc366004611436565b611260565b61017e61030f366004611642565b611311565b61031c61134b565b5f828152600360205260409020600781015462010000900460ff1661035457604051635add554360e01b815260040160405180910390fd5b60018101546001600160a01b03163314610381576040516323d03a7160e21b815260040160405180910390fd5b600781015460ff166103a6576040516349f55e0b60e01b815260040160405180910390fd5b5f8381526004602090815260408083206001600160a01b03861684529091529020805460ff166103e95760405163721c7c6760e11b815260040160405180910390fd5b8054610100900460ff161561041157604051638dc3b06560e01b815260040160405180910390fd5b6004808301546040516370a0823160e01b81523092810192909252906001600160a01b037f000000000000000000000000000000000000000000000000000000000000000016906370a0823190602401602060405180830381865afa15801561047c573d5f5f3e3d5ffd5b505050506040513d601f19601f820116820180604052508101906104a09190611662565b10156104bf576040516357e000b160e01b815260040160405180910390fd5b805461ff00191661010017815560048083015460405163a9059cbb60e01b81525f926001600160a01b037f0000000000000000000000000000000000000000000000000000000000000000169263a9059cbb9261053392899291016001600160a01b03929092168252602082015260400190565b6020604051808303815f875af115801561054f573d5f5f3e3d5ffd5b505050506040513d601f19601f820116820180604052508101906105739190611679565b905080610593576040516312171d8360e31b815260040160405180910390fd5b836001600160a01b0316857f33665d8bd2de17f768490daa4a9c27ce454c42738755cd9ca3705b0d8f20690c85600401546040516105d391815260200190565b60405180910390a35050506105e760015f55565b5050565b60036020525f908152604090208054819061060590611698565b80601f016020809104026020016040519081016040528092919081815260200182805461063190611698565b801561067c5780601f106106535761010080835404028352916020019161067c565b820191905f5260205f20905b81548152906001019060200180831161065f57829003601f168201915b50505060018401546002850154600386015460048701546005880154600689015460079099015497986001600160a01b039586169894909516965091945092909160ff80821691610100810482169162010000909104168a565b604080516080810182525f8082526020820181905291810182905260608101919091525f8381526003602052604090206007015462010000900460ff1661073057604051635add554360e01b815260040160405180910390fd5b505f8281526004602090815260408083206001600160a01b03851684528252918290208251608081018452815460ff808216151583526101009091041615159281019290925260018101549282019290925260029091015460608201525b92915050565b5f818152600360205260409020600781015462010000900460ff166107cc57604051635add554360e01b815260040160405180910390fd5b600781015460ff166107f1576040516349f55e0b60e01b815260040160405180910390fd5b5f8281526004602090815260408083203384529091529020805460ff161561082c576040516389644bf160e01b815260040160405180910390fd5b60028101541561084c57805460ff191660011781555f600282015561088f565b80544260018381019190915561ffff19909116811782555f848152600560209081526040822080549384018155825290200180546001600160a01b031916331790555b604051339084907f7dd8cb04159701bc1976c246434d7d96812782e7489e6c5c34db49a388fe9e80905f90a3505050565b5f6108c961134b565b6001600160a01b0386166109245760405162461bcd60e51b815260206004820152601960248201527f496e76616c6964206f7267616e697a657220616464726573730000000000000060448201526064015b60405180910390fd5b5f85116109835760405162461bcd60e51b815260206004820152602760248201527f46756e64696e67207265717569726564206d75737420626520677265617465726044820152660207468616e20360cc1b606482015260840161091b565b5f84116109e05760405162461bcd60e51b815260206004820152602560248201527f41697264726f7020616d6f756e74206d75737420626520677265617465722074604482015264068616e20360dc1b606482015260840161091b565b428311610a2f5760405162461bcd60e51b815260206004820181905260248201527f4576656e742064617465206d75737420626520696e2074686520667574757265604482015260640161091b565b5f8211610a8c5760405162461bcd60e51b815260206004820152602560248201527f46756e64696e6720616d6f756e74206d75737420626520677265617465722074604482015264068616e20360dc1b606482015260840161091b565b6040516323b872dd60e01b8152336004820152306024820152604481018390525f907f00000000000000000000000000000000000000000000000000000000000000006001600160a01b0316906323b872dd906064016020604051808303815f875af1158015610afe573d5f5f3e3d5ffd5b505050506040513d601f19601f82011682018060405250810190610b229190611679565b905080610b42576040516312171d8360e31b815260040160405180910390fd5b600280545f9182610b52836116e4565b9091555060408051610160810182525f610140820181815282526001600160a01b038c166020808401919091523383850152606083018c9052608083018b905260a083018a905260c08301899052600160e0840181905261010084018390526101208401528482526003905291909120815192935090918190610bd5908261175c565b506020828101516001830180546001600160a01b03199081166001600160a01b0393841617909155604080860151600286018054909316908416179091556060808601516003860155608080870151600487015560a080880151600588015560c0880151600688015560e088015160079097018054610100808b0151610120909b015161ffff1990921699151561ff001916999099179915159098029890981762ff0000191662010000971515979097029690961790965581518681525f968101969096529285018c905284018a90529083018890528a169183917fd05c332a5696a98df1d9668b66e5151cc308fc429c68bda2b0e70b09117f749f910160405180910390a3604051848152339082907fd7ecf0f99c6ad3c5c4a2e165d30c2c0a2ccca13074e215460a4008473f622bcf9060200160405180910390a3915050610d1e60015f55565b95945050505050565b604080516101408101825260608082525f6020830181905292820183905281018290526080810182905260a0810182905260c0810182905260e0810182905261010081018290526101208101919091525f8281526003602052604090206007015462010000900460ff16610dae57604051635add554360e01b815260040160405180910390fd5b5f828152600360205260409081902081516101408101909252805482908290610dd690611698565b80601f0160208091040260200160405190810160405280929190818152602001828054610e0290611698565b8015610e4d5780601f10610e2457610100808354040283529160200191610e4d565b820191905f5260205f20905b815481529060010190602001808311610e3057829003601f168201915b505050918352505060018201546001600160a01b03908116602083015260028301541660408201526003820154606082015260048201546080820152600582015460a0820152600682015460c082015260079091015460ff808216151560e08401526101008083048216151590840152620100009091041615156101209091015292915050565b6005602052815f5260405f208181548110610eed575f80fd5b5f918252602090912001546001600160a01b03169150829050565b610f10611373565b610f195f6113a0565b565b5f8181526003602052604090206007015460609062010000900460ff16610f5557604051635add554360e01b815260040160405180910390fd5b5f8281526005602090815260409182902080548351818402810184019094528084529091830182828015610fb057602002820191905f5260205f20905b81546001600160a01b03168152600190910190602001808311610f92575b50505050509050919050565b610fc461134b565b5f818152600360205260409020600781015462010000900460ff16610ffc57604051635add554360e01b815260040160405180910390fd5b60028101546001600160a01b031633146110295760405163df4795c760e01b815260040160405180910390fd5b600581015461103b9062015180611817565b42101561105b5760405163209a769d60e11b815260040160405180910390fd5b5f828152600560209081526040808320805482518185028101850190935280835284938301828280156110b557602002820191905f5260205f20905b81546001600160a01b03168152600190910190602001808311611097575b509394505f93505050505b81518110156111375760045f8681526020019081526020015f205f8383815181106110ed576110ed61182a565b6020908102919091018101516001600160a01b031682528101919091526040015f2054610100900460ff161561112f57600484015461112c9084611817565b92505b6001016110c0565b505f828460060154611149919061183e565b9050801561125057600284015460405163a9059cbb60e01b81526001600160a01b039182166004820152602481018390525f917f0000000000000000000000000000000000000000000000000000000000000000169063a9059cbb906044016020604051808303815f875af11580156111c4573d5f5f3e3d5ffd5b505050506040513d601f19601f820116820180604052508101906111e89190611679565b905080611208576040516312171d8360e31b815260040160405180910390fd5b60028501546040518381526001600160a01b039091169087907ff440aec6b52895984d061d622e6edeba6210f7c3e059be920663140c084560d79060200160405180910390a3505b5050505061125d60015f55565b50565b5f818152600360205260409020600781015462010000900460ff1661129857604051635add554360e01b815260040160405180910390fd5b5f8281526004602090815260408083203384529091529020805460ff166112d25760405163721c7c6760e11b815260040160405180910390fd5b805460ff19168155426002820155604051339084907f30ebfca8d8c33a64628fc8395fa0f6c5ab0ed13bd4c8cc489ccf5c73c40e6b0d905f90a3505050565b611319611373565b6001600160a01b03811661134257604051631e4fbdf760e01b81525f600482015260240161091b565b61125d816113a0565b60025f540361136d57604051633ee5aeb560e01b815260040160405180910390fd5b60025f55565b6001546001600160a01b03163314610f195760405163118cdaa760e01b815233600482015260240161091b565b600180546001600160a01b038381166001600160a01b0319831681179093556040519116919082907f8be0079c531659141344cd1fd0a4f28419497f9722a3daafe3b4186f6b6457e0905f90a35050565b80356001600160a01b0381168114611407575f5ffd5b919050565b5f5f6040838503121561141d575f5ffd5b8235915061142d602084016113f1565b90509250929050565b5f60208284031215611446575f5ffd5b5035919050565b5f81518084528060208401602086015e5f602082860101526020601f19601f83011685010191505092915050565b61014081525f61148f61014083018d61144d565b6001600160a01b039b8c16602084015299909a1660408201526060810197909752608087019590955260a086019390935260c0850191909152151560e0840152151561010083015215156101209091015292915050565b5f5f5f5f5f60a086880312156114fa575f5ffd5b611503866113f1565b97602087013597506040870135966060810135965060800135945092505050565b602081525f8251610140602084015261154161016084018261144d565b9050602084015161155d60408501826001600160a01b03169052565b5060408401516001600160a01b03811660608501525060608401516080840152608084015160a084015260a084015160c084015260c084015160e084015260e08401516115af61010085018215159052565b5061010084015180151561012085015250610120840151801515610140850152509392505050565b5f5f604083850312156115e8575f5ffd5b50508035926020909101359150565b602080825282518282018190525f918401906040840190835b818110156116375783516001600160a01b0316835260209384019390920191600101611610565b509095945050505050565b5f60208284031215611652575f5ffd5b61165b826113f1565b9392505050565b5f60208284031215611672575f5ffd5b5051919050565b5f60208284031215611689575f5ffd5b8151801515811461165b575f5ffd5b600181811c908216806116ac57607f821691505b6020821081036116ca57634e487b7160e01b5f52602260045260245ffd5b50919050565b634e487b7160e01b5f52601160045260245ffd5b5f600182016116f5576116f56116d0565b5060010190565b634e487b7160e01b5f52604160045260245ffd5b601f82111561175757805f5260205f20601f840160051c810160208510156117355750805b601f840160051c820191505b81811015611754575f8155600101611741565b50505b505050565b815167ffffffffffffffff811115611776576117766116fc565b61178a816117848454611698565b84611710565b6020601f8211600181146117bc575f83156117a55750848201515b5f19600385901b1c1916600184901b178455611754565b5f84815260208120601f198516915b828110156117eb57878501518255602094850194600190920191016117cb565b508482101561180857868401515f19600387901b60f8161c191681555b50505050600190811b01905550565b8082018082111561078e5761078e6116d0565b634e487b7160e01b5f52603260045260245ffd5b8181038181111561078e5761078e6116d056fea264697066735822122047ed5b87e204b4e173fb5408403a08474906e7f14b5f66c1b49731ccafc8554064736f6c634300081c0033",
  "linkReferences": {},
  "deployedLinkReferences": {},
  "immutableReferences": {
    "337": [
      {
        "length": 32,
        "start": 656
      },
      {
        "length": 32,
        "start": 1079
      },
      {
        "length": 32,
        "start": 1259
      },
      {
        "length": 32,
        "start": 2736
      },
      {
        "length": 32,
        "start": 4478
      }
    ]
  },
  "inputSourceName": "project/contracts/HuddleUpProtocol.sol",
  "buildInfoId": "solc-0_8_28-bff7fccb41a8be065e8454c2e652bbed2cb61999"
}